:100000000C9440000C9452000C9452000C9452003A
:100010000C9452000C9452000C9452000C94520018
:100020000C9452000C9452000C9452000C94520008
:100030000C9452000C9452000C9452000C945200F8
:100040000C9452000C9452000C9452000C945200E8
:100050000C9452000C9452000C9452000C945200D8
:100060000C9452000C945200CC09AE09A9099909CC
:1000700094098F09DD09322E3030727562726F007B
:1000800011241FBECFEFD8E0DEBFCDBF21E0A0E03E
:10009000B1E001C01D92A830B207E1F70E94130938
:1000A0000C94F20A0C940000CF93DF938BE30E9430
:1000B000B30787EF0E94B30781E00E94B30785E092
:1000C0000E94B30785E00E94B30780E00E94B30757
:1000D00080E00E94B307CAE7D0E0FE0184910E944D
:1000E000B3072196F0E0C038DF07B9F7DF91CF9171
:1000F0000895CF93DF9380910501843049F08CE619
:100100008093060184E080930701DF91CF910895E9
:10011000809101010E94B30780910501882379F045
:10012000C0E0D0E0FE01EA58FF4F84910E94B3077F
:1001300021968091050190E0C817D9079CF380E9CA
:100140008093060110920701DF91CF9108954F929D
:100150005F926F927F928F929F92AF92BF92CF9257
:10016000DF92EF92FF920F931F93CF93DF9381E380
:1001700090E00E94B70A8C31A9F060E081E390E042
:10018000DF91CF911F910F91FF90EF90DF90CF9073
:10019000BF90AF909F908F907F906F905F904F90A7
:1001A0000C94CF0A83E390E00E94B70A482E88237C
:1001B00021F384E3A82E80E0B82E9CE3692E90E022
:1001C000792E512CCCE4D0E0C5010E94B70AC82E8C
:1001D000C3010E94BF0A4C01CC20D1F0CA94D12C9B
:1001E0008FEFC81AD80ACC0EDD1E7E018FEFE81AF9
:1001F000F80ACE010E94B70A84010F5F1F4F682FD3
:10020000C4010E94CF0AE7014801CE14DF0469F758
:1002100053948FEFA81AB80A82E0680E711C45103B
:10022000D3CFABCF8F929F92AF92BF92DF92EF92DC
:10023000FF920F931F93CF93DF93CDB7DEB78E015D
:10024000025F1F4FF801E190F1908F0160E081E3C0
:1002500090E00E94CF0AE114F10409F43FC03CE4AD
:10026000A32E30E0B32ED12CA701B501F801808177
:1002700091810E94C50AAE0CBF1C8D2C912CF801F7
:1002800062817381C401880F991F845C9F4F0E9413
:10029000DD0A6E2DC4018C5C9F4F0E94CF0AD3945F
:1002A000F801E480F5800A5F1F4FE114F104E1F6E4
:1002B0006D2D83E390E00E94CF0A6CE181E390E032
:1002C0000E94CF0ADF91CF911F910F91FF90EF9085
:1002D000DF90BF90AF909F908F900895D12CE8CF82
:1002E000AF92BF92CF92DF92EF92FF920F931F9344
:1002F000CF93DF936A01662309F482C07C0100E09A
:1003000010E0C0E0D0E050E0E8E6AE2EE4E2BE2E21
:10031000E7E5F3E1D7018D917D0190E09C012C0F81
:100320003D1FE20FF31F252F2770DC0102C0AA0F2B
:10033000BB1F2A95E2F7EA27FB279C01200F311FFC
:10034000C9018A259B25DF01B695A795B695A79586
:10035000B695A7955D01A80EB91E5F5F6196015E17
:100360001F4F6513D7CF4E2F4F704A3008F04650BD
:10037000C501929582958F7089279F708927582F84
:100380005F70BB2DBF708A2D8F709F0132952295B3
:100390002F7023273F7023272F709F2F9F702A30A5
:1003A00008F026509A3040F19650782F3B2F652F59
:1003B0008A3010F07AEF780F5A3010F06AEF650F3C
:1003C000BA3010F03AEF3B0F405DF6014083205DFC
:1003D0002183905D9283705D7383605D6483305D83
:1003E0003583DF91CF911F910F91FF90EF90DF90B8
:1003F000CF90BF90AF900895782F3B2F652FD8CF27
:1004000078E034E066E047E025E093E0DDCF2F922E
:100410003F924F925F926F927F928F929F92AF9294
:10042000BF92CF92DF92EF92FF920F931F93CF93E1
:10043000DF93CDB7DEB7E0970FB6F894DEBF0FBEFF
:10044000CDBF81E08FA382E088A783E089A794E0F5
:100450009AA788AB85E08FA71EA61DA61CA61BA683
:10046000809105018132F8F08CE68093060180E2EC
:1004700080930701E0960FB6F894DEBF0FBECDBFA4
:10048000DF91CF911F910F91FF90EF90DF90CF9070
:10049000BF90AF909F908F907F906F905F904F90A4
:1004A0003F902F900895809101010E94B3076091C1
:1004B0000501662309F4CDC0FE0131966F017F016D
:1004C00000E010E00E948908F70181937F010F5F2F
:1004D0001F4F60910501862F90E00817190794F3CC
:1004E0008E010F5D1F4FA801C6010E9470011F926F
:1004F0001F9280E090E09F938F93CE018B969F9305
:100500008F931F9282E08F9322E030E03F932F93EE
:100510009E01235D3F4F3F932F931F928F9384E063
:1005200090E09F938F93CE018F969F938F931F920E
:1005300081E08F9325E030E03F932F939E01205D73
:100540003F4F3F932F931F928F932CE030E03F93C8
:100550002F939E01295D3F4F3F932F931F9294E06D
:100560009F9326E030E03F932F931F930F931F92AA
:1005700096E09F9320E130E03F932F93DF92CF925C
:10058000909105011F929F9320E330E03F932F93BA
:1005900025E031E03F932F931F928F930E94120129
:1005A0000FB6F894DEBF0FBECDBF81E390E00E948E
:1005B000B70A8C3169F060E081E390E00E94CF0AD5
:1005C0001092000180E9809306011092070152CF3A
:1005D00083E390E00E94B70A282E882361F384E326
:1005E000682E80E0782E9CE3492E90E0592E0CE492
:1005F00010E0312CC3010E94B70A882EC2010E946C
:10060000BF0A7C018820D9F08A94912C9FEF891A27
:10061000990A800E911E5801EFEFAE1ABE0AC8016A
:100620000E94B70A6701FFEFCF1ADF0A682FC701E0
:100630000E94CF0A850176018A149B0461F73394E6
:100640008FEF681A780A92E0490E511C2310D2CF1E
:10065000B2CFCE0101966C0143CFCF93DF9380E3FD
:1006600090E00E94B70A90910501891741F09CE63D
:100670009093060180930701DF91CF9108958091B7
:1006800001010E94B30780910501882381F0C0E039
:10069000D0E0CE01805F9F4F0E94B70A0E94B3074F
:1006A00021968091050190E0C817D90794F380E95D
:1006B0008093060110920701DF91CF91089585E0A4
:1006C00090E00E94B70A91E0811190E0892F08958F
:1006D00084E090E00E94B70A91E0811190E0892FB8
:1006E0000895FF920F931F93CF93DF9385E090E0DF
:1006F0000E94B70A8823A1F180910501843061F03E
:100700008CE68093060184E080930701DF91CF910E
:100710001F910F91FF900895809101010E94B307EE
:1007200085E090E00E94B70AF82ECCE0D0E001E02E
:100730000E948908182FCE010E94B70A181300E002
:10074000219680E0C031D80799F7011125C0F1103A
:1007500013C060E085E090E00E94CF0A1092000193
:1007600089E68093060183E880930701DF91CF91AA
:100770001F910F91FF900895FA946F2D85E090E0FE
:100780000E94CF0A10920001FF2051F383E680936C
:100790000601F0920701BACF81E08093000163E087
:1007A00085E090E00E94CF0A80E9809306011092D4
:1007B0000701ACCF2F923F924F925F926F927F9240
:1007C0008F929F92AF92BF92CF92DF92EF92FF9261
:1007D0000F931F93CF93DF9300D000D0CDB7DEB738
:1007E00085E090E00E94B70A81111DC089E68093E0
:1007F000060183E8809307010F900F900F900F90F0
:10080000DF91CF911F910F91FF90EF90DF90CF90EC
:10081000BF90AF909F908F907F906F905F904F9020
:100820003F902F90089580910501883039F08CE633
:100830008093060188E080930701DECF809101015B
:100840000E94B30785E090E00E94B70AA82E0CE052
:1008500010E020E1C22E20E0D22EBB24B3940E94EF
:100860008908F82EC8010E94B70AF812B12C0F5F50
:100870001F4FC016D10699F78E010F5F1F4F7E01E3
:1008800025E0E20EF11C0E948908F80181938F0196
:10089000EE15FF05C1F7B1101BC0AA2089F0AA947C
:1008A0006A2D85E090E00E94CF0A10920001AA20F4
:1008B00009F49CCF83E680930601A09207019CCFA8
:1008C00060E085E090E00E94CF0A109200018ECF98
:1008D0001F921F928CE090E09F938F9321E030E075
:1008E0002C0F3D1F3F932F931F9284E08F930E9404
:1008F000120181E390E00E94B70A0FB6F894DEBFC0
:100900000FBECDBF8C3191F060E081E390E00E949A
:10091000CF0A1092000163E085E090E00E94CF0AC8
:1009200080E9809306011092070166CF83E390E08F
:100930000E94B70A282E882339F384E3682E80E0CA
:10094000782E9CE3492E90E0592E0CE410E0312CD7
:10095000C3010E94B70A882EC2010E94BF0A7C010F
:100960008820D9F08A94912CFFEF8F1A9F0A800E6D
:10097000911E58012FEFA21AB20AC8010E94B70AAD
:1009800067013FEFC31AD30A682FC7010E94CF0A3D
:10099000850176018A149B0461F733948FEF681AFE
:1009A000780A92E0490E511C2310D2CFADCF2F927E
:1009B0003F924F925F926F927F928F929F92AF92EF
:1009C000BF92CF92DF92EF92FF920F931F93CF933C
:1009D000DF9300D000D0CDB7DEB784E090E00E9476
:1009E000B70A81111DC089E68093060183E88093D0
:1009F00007010F900F900F900F90DF91CF911F91F3
:100A00000F91FF90EF90DF90CF90BF90AF909F90AD
:100A10008F907F906F905F904F903F902F900895B0
:100A2000809105018A3039F08CE6809306018AE0D6
:100A300080930701DECF809101010E94B30784E01B
:100A400090E00E94B70AE82E882369F206E010E0E1
:100A50002CE0C22E20E0D22EBB24B3940E94890841
:100A6000F82EC8010E94B70AF812B12C0F5F1F4F71
:100A7000C016D10699F78E010F5F1F4F6E0125E05A
:100A8000C20ED11C0E948908F80181938F01EC15D8
:100A9000FD05C1F7B1100FC0EA946E2D84E090E01F
:100AA0000E94CF0AEE2009F49ECF83E680930601D0
:100AB000E09207019ECF1F921F928CE090E09F93DF
:100AC0008F9321E030E02C0F3D1F3F932F931F9217
:100AD00084E08F930E94120181E390E00E94B70AA4
:100AE0000FB6F894DEBF0FBECDBF8C31B9F060E019
:100AF00081E390E00E94CF0A63E085E090E00E94ED
:100B0000CF0A65E084E090E00E94CF0A10920001D5
:100B100080E980930601109207016BCF83E390E098
:100B20000E94B70A282E882311F384E3682E80E000
:100B3000782E9CE3492E90E0592E0CE410E0312CE5
:100B4000C3010E94B70A882EC2010E94BF0A7C011D
:100B50008820D9F08A94912CFFEF8F1A9F0A800E7B
:100B6000911E58012FEFA21AB20AC8010E94B70ABB
:100B700067013FEFC31AD30A682FC7010E94CF0A4B
:100B8000850176018A149B0461F733948FEF681A0C
:100B9000780A92E0490E511C2310D2CFA8CF809141
:100BA0000001811107C099E69093060192E89093A5
:100BB0000701089581E0089582E090E00E94BF0A55
:100BC0002091020130E0322F222740910401242B92
:100BD0008217930741F089E68093060184E88093A9
:100BE000070180E00895BC016F5F7F4F82E090E0D5
:100BF0000E94DD0A81E00895CF9380910001811168
:100C000008C089E68093060182E880930701CF91AE
:100C100008951092000180910501823041F08CE628
:100C20008093060182E080930701CF91089580911F
:100C300001010E94B30780E090E00E94BF0AC92F23
:100C40000E94B3078C2F0E94B30780E980930601AE
:100C500010920701CF910895CF93DF938091000107
:100C6000811109C089E68093060182E8809307011B
:100C7000DF91CF9108951092000182E090E00E94F0
:100C8000BF0A2091020130E0322F22274091040157
:100C9000242B8217930749F089E68093060184E8A4
:100CA00080930701DF91CF910895BC016F5F7F4F63
:100CB00082E090E00E94DD0A80910501823049F0D7
:100CC0008CE68093060182E080930701DF91CF914B
:100CD0000895809101010E94B3070E948908C82FDE
:100CE000D0E00E948908D82B80E090E00E94BF0AE3
:100CF0008C0F9D1F8C179D0730F481E680930601B1
:100D000010920701B5CFBC0180E090E00E94DD0A9F
:100D100080E98093060110920701AACF2F923F929B
:100D20004F925F926F927F928F929F92AF92BF92FB
:100D3000CF92DF92EF92FF920F931F93CF93DF93A7
:100D400000D0CDB7DEB78091000181111BC089E6CC
:100D50008093060182E8809307010F900F90DF9146
:100D6000CF911F910F91FF90EF90DF90CF90BF90A8
:100D7000AF909F908F907F906F905F904F903F903B
:100D80002F9008951092000182E090E00E94BF0A27
:100D90002091020130E0322F222740910401242BC0
:100DA0008217930739F089E68093060184E88093DF
:100DB0000701D3CFBC016F5F7F4F82E090E00E94BC
:100DC000DD0A10910501123039F08CE6809306019E
:100DD00082E080930701C1CF809101010E94B30797
:100DE0000E948908E82EF12C0E948908F82A80E0E8
:100DF00090E00E94BF0A8E159F0530F481E6809333
:100E0000060110920701A9CF8E199F099A83898341
:100E10001F921F9280E090E09F938F93CE010196E6
:100E20009F938F931F921F930E94120181E390E082
:100E30000E94B70A0FB6F894DEBF0FBECDBF8C314B
:100E400059F060E081E390E00E94CF0A80E980934E
:100E500006011092070181CF83E390E00E94B70A58
:100E6000282E882371F354E3652E50E0752E6CE331
:100E7000462E60E0562E0CE410E0312CC3010E9497
:100E8000B70A882EC2010E94BF0A7C018820D9F0CF
:100E90008A94912C3FEF831A930A800E911E580179
:100EA0008FEFA81AB80AC8010E94B70A67019FEF1E
:100EB000C91AD90A682FC7010E94CF0A8501760195
:100EC000A814B90461F733942FEF621A720A32E062
:100ED000430E511C2310D2CFB4CFCF938091050184
:100EE000823041F08CE68093060182E08093070116
:100EF000CF910895809101010E94B30782E090E0B4
:100F00000E94BF0AC92F0E94B3078C2F0E94B3070B
:100F100080E98093060110920701CF910895CF9345
:100F2000DF9300D0CDB7DEB78A838A818170829546
:100F3000807F898382EB90E0FC0180818E32D0F348
:100F400085E290E02981FC01208382EB90E0FC01A6
:100F5000108282EB90E0FC01108200000F900F9055
:100F6000DF91CF910895CF93DF9300D000D0CDB71C
:100F7000DEB78C838C818B8381EB90E022E0FC01D7
:100F8000208382EB90E028E2FC01208385E290E060
:100F900025E230E0F90120812061FC01208384E218
:100FA00090E024E230E0F90120812061FC012083FF
:100FB00080E00E948F071A8219820DC08C810E94E6
:100FC0008F079A818C8189278A838C8186958C836F
:100FD00089818F5F89838981883080F38A810E942B
:100FE0008F0781E00E948F0782EB90E0FC018081F7
:100FF0008E32D0F384E290E024E230E0F9012081E7
:101000002F7EFC01208385E290E025E230E0F901AB
:1010100020812F7EFC01208382EB90E0FC01808107
:101020008D35D0F383E290E0FC018081882F90E041
:1010300080719927892B91F483E290E0FC018081F3
:10104000882F90E080719927892BB1F382EB90E093
:1010500026E1FC0120838B818C8398CF81EB90E08B
:10106000FC01108200000F900F900F900F90DF9105
:10107000CF910895CF93DF931F92CDB7DEB782EB68
:1010800090E0FC0180818E32D0F382EB90E0FC0195
:10109000108282EB90E0FC01108282EB90E0FC0178
:1010A00080818C30D0F383E290E0FC0180818071FC
:1010B000898382EB90E0FC0180818731D0F383E269
:1010C00090E0FC018081882F90E080719927982F13
:1010D0008981890F898382EB90E0FC0180818232D3
:1010E000D0F383E290E0FC018081882F90E0807152
:1010F0009927982F8981890F89838981882F90E08A
:10110000880F991F880F991F80780F90DF91CF91DA
:101110000895CF93DF9300D000D0CDB7DEB781EB39
:1011200090E022E0FC01208384E290E024E230E0C1
:10113000F90120812F7EFC01208385E290E025E2E9
:1011400030E0F90120812061FC0120831A8283E2D2
:1011500090E0FC018081882F90E080719927892B95
:10116000B1F783E290E0FC018081882F90E08071EC
:101170009927892BB1F782EB90E0FC01108282EB7A
:1011800090E0FC0110821B82198210C00E943A0874
:101190008C838A81982F96958C81890F8A839B8175
:1011A0008C8189278B8389818F5F898389818830AE
:1011B00068F30E943A08982F8B8189278B8382EBF2
:1011C00090E0FC0180818D35D0F38B818823C9F0BC
:1011D00085E290E025E230E0F90120812F7EFC01DC
:1011E000208384E290E024E230E0F9012081206154
:1011F000FC01208382EB90E0FC018081823AD0F3F5
:1012000093CF82EB90E0FC0180818B38D0F381EBAF
:1012100090E0FC0110828A810F900F900F900F9048
:10122000DF91CF91089580E880BF87E880936400C4
:101230008FEF85B984B988B987B91AB88BB980E6B8
:101240008093B6000E9454000E94A70010920701EC
:10125000109200010CE654E0E52E60E9A62E7DE632
:10126000F72E1EE6E0E1CE2EE0E0DE2E33243394AE
:10127000F3E68F2EA9E6BA2EB3E89B2EC1E64C2EDC
:1012800013C0E09101018E2F90E0FC013197E7300F
:10129000F10508F440C0F09206018DE60E94B30704
:1012A000809107010E94B3070E948908809303017F
:1012B0000E948908809301010E948908809304019B
:1012C0000E948908809302010E948908C82F809398
:1012D00005011092070180910301813831F08238B5
:1012E00081F2109306018EE6D9CF80910101813001
:1012F00009F492C008F476C0823069F680E390E089
:101300000E94B70AC81709F4A0C000930601809391
:1013100007018CE6C3CFEC5CFF4F0C94B10A0E942E
:10132000D70480910601BACF0E94DA0380910601AA
:10133000B5CF85E090E00E94B70A882309F47FC00A
:10134000C43009F4C8C000930601E09207018CE69E
:10135000A5CF0E948E0680910601A0CF809100014A
:10136000882309F45EC01092000182E090E00E94A0
:10137000BF0A2091020130E0322F22274091040160
:10138000242B8217930709F479C0B092060184E8F0
:101390008093070189E682CF80910001882309F4B8
:1013A00040C010920001C23009F48FC000930601C2
:1013B00082E0809307018CE671CFC230B9F787E0F5
:1013C0000E94B30782E090E00E94BF0AC92F0E94EA
:1013D000B3078C2F0E94B307A09206011092070159
:1013E00080E95CCFC43009F0AECF80E00E94B30743
:1013F00080910501882381F3C0E0D0E0FE01EA5826
:10140000FF4F84910E94B30721968091050190E0DF
:10141000C817D9079CF3E0CF0E940702809106010C
:101420003DCFB092060182E88093070189E636CF6E
:1014300060E085E090E00E94CF0A10920001B09237
:1014400006019092070189E629CF82E00E94B30746
:1014500080910501882309F4BFCFC0E0D0E0CE0120
:10146000805F9F4F0E94B70A0E94B3072196809128
:10147000050190E0C817D90794F3AECFBC016F5FA8
:101480007F4F82E090E00E94DD0A8091050182306A
:1014900009F08CCF809101010E94B3070E94890856
:1014A000C82FD0E00E948908D82B80E090E00E94ED
:1014B000BF0A8C0F9D1F8C179D0708F047C04092F4
:1014C00006011092070181E6E9CE81E00E94B30790
:1014D00080E090E079CF84E00E94B30785E090E05F
:1014E0000E94B70A582ECCE0D0E0662463940E9494
:1014F0008908782ECE010E94B70A7812612C2196B5
:10150000CC16DD06A1F7611014C0552009F490CF68
:101510005A94652D85E090E00E94CF0A1092000158
:10152000552009F48CCF809206015092070183E682
:10153000B5CE3092000163E085E090E00E94CF0AD2
:10154000A09206011092070180E9A8CEBC0180E0BC
:1015500090E00E94DD0AA09206011092070180E946
:101560009DCEEE0FFF1F0590F491E02D0994F9999F
:10157000FECF92BD81BDF89A992780B50895A8E164
:10158000B0E042E050E00C94E40ADC01CB0103C07F
:101590002D910E94D00A41505040D0F70895262F37
:1015A000F999FECF1FBA92BD81BD20BD0FB6F89448
:1015B000FA9AF99A0FBE019608950E94CF0A272F32
:1015C0000C94D00ADC01CB01FC01F999FECF06C0D6
:1015D000F2BDE1BDF89A319600B40D9241505040F1
:0815E000B8F70895F894FFCF5D
:00000001FF
