:100000000C9440000C9452000C9452000C9452003A
:100010000C9452000C9452000C9452000C94520018
:100020000C9452000C9452000C9452000C94520008
:100030000C9452000C9452000C9452000C945200F8
:100040000C9452000C9452000C9452000C945200E8
:100050000C9452000C9452000C9452000C945200D8
:100060000C9452000C945200B6099A09950985091E
:1000700080097B09C509312E3030626F7572736556
:1000800011241FBECFEFD8E0DEBFCDBF21E0A0E03E
:10009000B1E001C01D92A830B207E1F70E94FF084D
:1000A0000C94DF0A0C940000CF93DF938BE30E9443
:1000B0009F0787EF0E949F0781E00E949F0785E0CE
:1000C0000E949F0785E00E949F0780E00E949F0793
:1000D00080E00E949F07CAE7D0E0FE0184910E9461
:1000E0009F072196F0E0C038DF07B9F7DF91CF9185
:1000F0000895CF93DF9380910501843049F08CE619
:100100008093060184E080930701DF91CF910895E9
:10011000809101010E949F0780910501882379F059
:10012000C0E0D0E0FE01EA58FF4F84910E949F0793
:1001300021968091050190E0C817D9079CF380E9CA
:1001400080930601DF91CF9108954F925F926F9255
:100150007F928F929F92AF92BF92CF92DF92EF9257
:10016000FF920F931F93CF93DF9381E390E00E9460
:10017000A40A8C31A9F060E081E390E0DF91CF9197
:100180001F910F91FF90EF90DF90CF90BF90AF90B5
:100190009F908F907F906F905F904F900C94BC0ACF
:1001A00083E390E00E94A40A482E882321F384E38D
:1001B000A82E80E0B82E97E3692E90E0792E512C7E
:1001C000CDE3D0E0C5010E94A40AC82EC3010E945D
:1001D000AC0A4C01CC20D1F0CA94D12C8FEFC81AB4
:1001E000D80ACC0EDD1E7E018FEFE81AF80ACE0188
:1001F0000E94A40A84010F5F1F4F682FC4010E9450
:10020000BC0AE7014801CE14DF0469F753948FEF6D
:10021000A81AB80A82E0680E711C4510D3CFABCF84
:100220008F929F92BF92CF92DF92EF92FF920F93A5
:100230001F93CF93DF93CDB7DEB78E01025F1F4FC1
:10024000F801E190F1908F0160E081E390E00E947D
:10025000BC0AE114F10409F442C03DE3832E30E00E
:10026000932EB12CA701B401F801808191810E94E5
:10027000B20A8E0C9F1CCB2CD12CF80162817381A9
:10028000F3E0CF0ED11CC601880F991F8F5C9F4FE2
:100290000E94CA0A6E2DC6018F5C9F4F0E94BC0A45
:1002A000B394F801E480F5800A5F1F4FE114F10474
:1002B000C9F66B2D83E390E00E94BC0A6CE181E3F8
:1002C00090E00E94BC0ADF91CF911F910F91FF90A7
:1002D000EF90DF90CF90BF909F908F900895B12CBA
:1002E000E8CFAF92BF92CF92DF92EF92FF920F933F
:1002F0001F93CF93DF936A01662309F482C07C01C8
:1003000000E010E0C0E0D0E050E0E8E6AE2EE4E22D
:10031000BE2EE7E5F3E1D7018D917D0190E09C01D0
:100320002C0F3D1FE20FF31F252F2770DC0102C0A9
:10033000AA0FBB1F2A95E2F7EA27FB279C01200F93
:10034000311FC9018A259B25DF01B695A795B69572
:10035000A795B695A7955D01A80EB91E5F5F61963A
:10036000015E1F4F6513D7CF4E2F4F704A3008F0F4
:100370004650C501929582958F7089279F70892775
:10038000582F5F70BB2DBF708A2D8F709F013295E3
:1003900022952F7023273F7023272F709F2F9F7048
:1003A0002A3008F026509A3040F19650782F3B2F93
:1003B000652F8A3010F07AEF780F5A3010F06AEF1C
:1003C000650FBA3010F03AEF3B0F405DF601408305
:1003D000205D2183905D9283705D7383605D648393
:1003E000305D3583DF91CF911F910F91FF90EF909A
:1003F000DF90CF90BF90AF900895782F3B2F652F5F
:10040000D8CF78E034E066E047E025E093E0DDCF48
:100410002F923F924F925F926F927F928F929F9214
:10042000AF92BF92CF92DF92EF92FF920F931F9302
:10043000CF93DF93CDB7DEB7AE970FB6F894DEBF9C
:100440000FBECDBF81E08FA382E088A783E089A79C
:1004500094E09AA78EA785E08DA71CA61BA6809185
:1004600005018132F8F08CE68093060180E28093EA
:100470000701AE960FB6F894DEBF0FBECDBFDF9179
:10048000CF911F910F91FF90EF90DF90CF90BF9091
:10049000AF909F908F907F906F905F904F903F9024
:1004A0002F900895809101010E949F07609105019E
:1004B000662309F4C0C0FE0131966F017F0100E0A0
:1004C00010E00E947508F70181937F010F5F1F4FB5
:1004D00060910501862F90E00817190794F38E01AB
:1004E0000F5D1F4FA801C6010E9471011F921F924C
:1004F00082E090E09F938F93CE018B969F938F9392
:100500001F9282E08F9384E090E09F938F93CE01BF
:100510008D969F938F931F9281E08F9325E030E01B
:100520003F932F939E01225D3F4F3F932F931F9246
:100530008F932CE030E03F932F939E01295D3F4F36
:100540003F932F931F9294E09F9326E030E03F93D8
:100550002F931F930F931F9296E09F9320E130E01B
:100560003F932F93DF92CF92909105011F929F931B
:1005700020E330E03F932F9325E031E03F932F932A
:100580001F928F930E9410010FB6F894DEBF0FBE2A
:10059000CDBF81E390E00E94A40A8C3159F060E065
:1005A00081E390E00E94BC0A1092000180E98093F0
:1005B00006015FCF83E390E00E94A40A282E8823DF
:1005C00071F384E3682E80E0782E97E3492E90E063
:1005D000592E0DE310E0312CC3010E94A40A882E8D
:1005E000C2010E94AC0A7C018820D9F08A94912C27
:1005F0009FEF891A990A800E911E5801EFEFAE1AEB
:10060000BE0AC8010E94A40A6701FFEFCF1ADF0AE1
:10061000682FC7010E94BC0A850176018A149B04D9
:1006200061F733948FEF681A780A92E0490E511CF3
:100630002310D2CFB4CFCE0101966C0150CFCF930F
:10064000DF9380E390E00E94A40A9091050189174E
:1006500041F09CE69093060180930701DF91CF91D2
:100660000895809101010E949F07809105018823D0
:1006700081F0C0E0D0E0CE01805F9F4F0E94A40ACD
:100680000E949F0721968091050190E0C817D90725
:1006900094F380E980930601DF91CF91089585E07E
:1006A00090E00E94A40A91E0811190E0892F0895C2
:1006B00084E090E00E94A40A91E0811190E0892FEB
:1006C0000895FF920F931F93CF93DF9385E090E0FF
:1006D0000E94A40A8823A1F180910501843061F071
:1006E0008CE68093060184E080930701DF91CF912F
:1006F0001F910F91FF900895809101010E949F0723
:1007000085E090E00E94A40AF82ECCE0D0E001E061
:100710000E947508182FCE010E94A40A181300E049
:10072000219680E0C031D80799F7011125C0F1105A
:1007300013C060E085E090E00E94BC0A10920001C6
:1007400089E68093060183E880930701DF91CF91CA
:100750001F910F91FF900895FA946F2D85E090E01E
:100760000E94BC0A10920001FF2051F383E680939F
:100770000601F0920701BACF81E08093000163E0A7
:1007800085E090E00E94BC0A80E980930601109207
:100790000701ACCF2F923F924F925F926F927F9260
:1007A0008F929F92AF92BF92CF92DF92EF92FF9281
:1007B0000F931F93CF93DF9300D000D0CDB7DEB758
:1007C00085E090E00E94A40A81111DC089E6809313
:1007D000060183E8809307010F900F900F900F9010
:1007E000DF91CF911F910F91FF90EF90DF90CF900D
:1007F000BF90AF909F908F907F906F905F904F9041
:100800003F902F90089580910501883039F08CE653
:100810008093060188E080930701DECF809101017B
:100820000E949F0785E090E00E94A40AA82E0CE099
:1008300010E020E1C22E20E0D22EBB24B3940E940F
:100840007508F82EC8010E94A40AF812B12C0F5F97
:100850001F4FC016D10699F78E010F5F1F4F7E0103
:1008600025E0E20EF11C0E947508F80181938F01CA
:10087000EE15FF05C1F7B1101BC0AA2089F0AA949C
:100880006A2D85E090E00E94BC0A10920001AA2027
:1008900009F49CCF83E680930601A09207019CCFC8
:1008A00060E085E090E00E94BC0A109200018ECFCB
:1008B0001F921F928CE090E09F938F9321E030E095
:1008C0002C0F3D1F3F932F931F9284E08F930E9424
:1008D000100181E390E00E94A40A0FB6F894DEBFF5
:1008E0000FBECDBF8C3199F060E081E390E00E94B3
:1008F000BC0A81E08093000163E085E090E00E9403
:10090000BC0A80E9809306011092070165CF83E35A
:1009100090E00E94A40A282E882331F384E3682EF5
:1009200080E0782E97E3492E90E0592E0DE310E0F9
:10093000312CC3010E94A40A882EC2010E94AC0A75
:100940007C018820D9F08A94912CFFEF8F1A9F0A9E
:10095000800E911E58012FEFA21AB20AC8010E9400
:10096000A40A67013FEFC31AD30A682FC7010E9488
:10097000BC0A850176018A149B0461F733948FEFDA
:10098000681A780A92E0490E511C2310D2CFACCFDE
:100990002F923F924F925F926F927F928F929F928F
:1009A000AF92BF92CF92DF92EF92FF920F931F937D
:1009B000CF93DF9300D000D0CDB7DEB784E090E0D6
:1009C0000E94A40A81111DC089E68093060183E874
:1009D000809307010F900F900F900F90DF91CF91B0
:1009E0001F910F91FF90EF90DF90CF90BF90AF904D
:1009F0009F908F907F906F905F904F903F902F903F
:100A00000895809105018A3039F08CE680930601C3
:100A10008AE080930701DECF809101010E949F0749
:100A200084E090E00E94A40AE82E882369F206E0A0
:100A300010E02CE0C22E20E0D22EBB24B3940E9402
:100A40007508F82EC8010E94A40AF812B12C0F5F95
:100A50001F4FC016D10699F78E010F5F1F4F6E0111
:100A600025E0C20ED11C0E947508F80181938F0108
:100A7000EC15FD05C1F7B1100FC0EA946E2D84E0AE
:100A800090E00E94BC0AEE2009F49ECF83E680939A
:100A90000601E09207019ECF1F921F928CE090E02A
:100AA0009F938F9321E030E02C0F3D1F3F932F93B6
:100AB0001F9284E08F930E94100181E390E00E94D6
:100AC000A40A0FB6F894DEBF0FBECDBF8C31C1F0C3
:100AD00060E081E390E00E94BC0A63E085E090E082
:100AE0000E94BC0A65E084E090E00E94BC0A81E0BC
:100AF0008093000180E980930601109207016ACF7C
:100B000083E390E00E94A40A282E882309F384E35B
:100B1000682E80E0782E97E3492E90E0592E0DE361
:100B200010E0312CC3010E94A40A882EC2010E9449
:100B3000AC0A7C018820D9F08A94912CFFEF8F1A9F
:100B40009F0A800E911E58012FEFA21AB20AC80107
:100B50000E94A40A67013FEFC31AD30A682FC70196
:100B60000E94BC0A850176018A149B0461F73394C4
:100B70008FEF681A780A92E0490E511C2310D2CFE9
:100B8000A7CF80910001811107C099E690930601DB
:100B900092E890930701089581E0089582E090E043
:100BA0000E94AC0A2091020130E0322F22274091AE
:100BB0000401242B8217930741F089E680930601F4
:100BC00084E88093070180E00895BC016F5F7F4F48
:100BD00082E090E00E94CA0A81E00895CF9380915C
:100BE0000001811108C089E68093060182E88093A4
:100BF0000701CF91089580910501823041F08CE684
:100C00008093060182E080930701CF91089580913F
:100C100001010E949F0780E090E00E94AC0AC92F6A
:100C20000E949F078C2F0E949F0780E980930601F6
:100C300010920701CF910895CF93DF938091000127
:100C4000811109C089E68093060182E8809307013B
:100C5000DF91CF91089582E090E00E94AC0A20914C
:100C6000020130E0322F222740910401242B821709
:100C7000930749F089E68093060184E88093070191
:100C8000DF91CF910895BC016F5F7F4F82E090E0CC
:100C90000E94CA0A80910501823049F08CE6809357
:100CA000060182E080930701DF91CF910895809142
:100CB00001010E949F070E947508C82FD0E00E9482
:100CC0007508D82B80E090E00E94AC0A8C0F9D1F25
:100CD0008C179D0730F481E680930601109207017E
:100CE000B7CFBC0180E090E00E94CA0A80E98093FF
:100CF000060110920701ACCF2F923F924F925F9264
:100D00006F927F928F929F92AF92BF92CF92DF921B
:100D1000EF92FF920F931F93CF93DF9300D0CDB745
:100D2000DEB78091000181111BC089E68093060126
:100D300082E8809307010F900F90DF91CF911F9170
:100D40000F91FF90EF90DF90CF90BF90AF909F906A
:100D50008F907F906F905F904F903F902F9008956D
:100D600082E090E00E94AC0A2091020130E0322F34
:100D7000222740910401242B8217930739F089E63A
:100D80008093060184E880930701D5CFBC016F5F93
:100D90007F4F82E090E00E94CA0A10910501123054
:100DA00039F08CE68093060182E080930701C3CF7F
:100DB000809101010E949F070E947508E82EF12C86
:100DC0000E947508F82A80E090E00E94AC0A8E1517
:100DD0009F0530F481E68093060110920701ABCFA6
:100DE0008E199F099A8389831F921F9280E090E059
:100DF0009F938F93CE0101969F938F931F921F9382
:100E00000E94100181E390E00E94A40A0FB6F894BA
:100E1000DEBF0FBECDBF8C3159F060E081E390E0C2
:100E20000E94BC0A80E9809306011092070183CFDB
:100E300083E390E00E94A40A282E882371F354E3F0
:100E4000652E50E0752E67E3462E60E0562E0DE3CA
:100E500010E0312CC3010E94A40A882EC2010E9416
:100E6000AC0A7C018820D9F08A94912C3FEF831A38
:100E7000930A800E911E58018FEFA81AB80AC80174
:100E80000E94A40A67019FEFC91AD90A682FC701F7
:100E90000E94BC0A85017601A814B90461F7339455
:100EA0002FEF621A720A32E0430E511C2310D2CF88
:100EB000B4CFCF9380910501823041F08CE68093CE
:100EC000060182E080930701CF910895809101018E
:100ED0000E949F0782E090E00E94AC0AC92F0E9406
:100EE0009F078C2F0E949F0780E980930601109234
:100EF0000701CF910895CF93DF9300D0CDB7DEB730
:100F00008A838A8181708295807F898382EB90E0D9
:100F1000FC0180818E32D0F385E290E02981FC01D2
:100F2000208382EB90E0FC01108282EB90E0FC01D8
:100F3000108200000F900F90DF91CF910895CF9312
:100F4000DF9300D000D0CDB7DEB78C838C818B834C
:100F500081EB90E022E0FC01208382EB90E028E22C
:100F6000FC01208385E290E025E230E0F901208158
:100F70002061FC01208384E290E024E230E0F9016A
:100F800020812061FC01208380E00E947B071A827F
:100F900019820DC08C810E947B079A818C818927E0
:100FA0008A838C8186958C8389818F5F89838981EF
:100FB000883080F38A810E947B0781E00E947B0752
:100FC00082EB90E0FC0180818E32D0F384E290E0ED
:100FD00024E230E0F90120812F7EFC01208385E2AC
:100FE00090E025E230E0F90120812F7EFC01208392
:100FF00082EB90E0FC0180818D35D0F383E290E0BC
:10100000FC018081882F90E080719927892B91F4D1
:1010100083E290E0FC018081882F90E08071992725
:10102000892BB1F382EB90E026E1FC0120838B81D8
:101030008C8398CF81EB90E0FC01108200000F9030
:101040000F900F900F90DF91CF910895CF93DF9382
:101050001F92CDB7DEB782EB90E0FC0180818E322B
:10106000D0F382EB90E0FC01108282EB90E0FC0177
:10107000108282EB90E0FC0180818C30D0F383E21F
:1010800090E0FC0180818071898382EB90E0FC011B
:1010900080818731D0F383E290E0FC018081882F4A
:1010A00090E080719927982F8981890F898382EB3D
:1010B00090E0FC0180818232D0F383E290E0FC0179
:1010C0008081882F90E080719927982F8981890FDE
:1010D00089838981882F90E0880F991F880F991F35
:1010E00080780F90DF91CF910895CF93DF9300D058
:1010F00000D0CDB7DEB781EB90E022E0FC01208389
:1011000084E290E024E230E0F90120812F7EFC01AE
:10111000208385E290E025E230E0F9012081206122
:10112000FC0120831A8283E290E0FC018081882FF9
:1011300090E080719927892BB1F783E290E0FC0160
:101140008081882F90E080719927892BB1F782EBFD
:1011500090E0FC01108282EB90E0FC0110821B8287
:10116000198210C00E9426088C838A81982F969538
:101170008C81890F8A839B818C8189278B838981CC
:101180008F5F89838981883068F30E942608982FB1
:101190008B8189278B8382EB90E0FC0180818D35E8
:1011A000D0F38B818823C9F085E290E025E230E01E
:1011B000F90120812F7EFC01208384E290E024E26B
:1011C00030E0F90120812061FC01208382EB90E076
:1011D000FC018081823AD0F393CF82EB90E0FC0156
:1011E00080818B38D0F381EB90E0FC0110828A8102
:1011F0000F900F900F900F90DF91CF91089580E89E
:1012000080BF87E8809364008FEF85B984B988B97F
:1012100087B91AB88BB980E68093B6000E94540053
:101220000E94A50010920701109200010CE654E004
:10123000E52E60E9A62E7DE6F72E1EE6E0E1CE2E35
:10124000E0E0DE2E33243394F3E68F2EA9E6BA2EA7
:10125000B3E89B2EC1E64C2E13C0E09101018E2F06
:1012600090E0FC013197E730F10508F440C0F092BE
:1012700006018DE60E949F07809107010E949F074B
:101280000E947508809303010E94750880930101F4
:101290000E947508809304010E94750880930201E2
:1012A0000E947508C82F8093050110920701809154
:1012B0000301813831F0823881F2109306018EE605
:1012C000D9CF80910101813009F491C008F472C036
:1012D000823069F680E390E00E94A40AC81709F4FE
:1012E0009FC000930601809307018CE6C3CFEC5C9E
:1012F000FF4F0C949E0A0E94C80480910601BACF49
:101300000E94CA0380910601B5CF85E090E00E945B
:10131000A40A882309F47EC0C43009F4C9C000932C
:101320000601E09207018CE6A5CF0E947C06809121
:101330000601A0CF80910001882309F45DC082E0FE
:1013400090E00E94AC0A2091020130E0322F222767
:1013500040910401242B8217930709F47CC0B092BA
:10136000060184E88093070189E684CF809100011B
:10137000882309F441C0C23009F494C000930601E7
:1013800082E0809307018CE675CFC230B9F787E021
:101390000E949F0782E090E00E94AC0AC92F0E9441
:1013A0009F078C2F0E949F07A092060110920701B1
:1013B00080E960CFC43009F0B2CF80E00E949F077F
:1013C00080910501882379F0C0E0D0E0FE01EA5861
:1013D000FF4F84910E949F0721968091050190E024
:1013E000C817D9079CF3A092060180E943CF0E9459
:1013F0000802809106013ECFB092060182E88093F8
:10140000070189E637CF60E085E090E00E94BC0AE2
:1014100010920001B09206019092070189E62ACF4E
:1014200082E00E949F07809105018823E1F2C0E0DD
:10143000D0E0CE01805F9F4F0E94A40A0E949F07C8
:1014400021968091050190E0C817D90794F3A092E6
:10145000060180E90FCFBC016F5F7F4F82E090E013
:101460000E94CA0A80910501823009F087CF8091DD
:1014700001010E949F070E947508C82FD0E00E94BA
:101480007508D82B80E090E00E94AC0A8C0F9D1F5D
:101490008C179D0708F047C0409206011092070183
:1014A00081E6E8CE81E00E949F0780E090E074CF63
:1014B00084E00E949F0785E090E00E94A40A582ED5
:1014C000CCE0D0E0662463940E947508782ECE01AB
:1014D0000E94A40A7812612C2196CC16DD06A1F791
:1014E000611014C0552009F48ECF5A94652D85E003
:1014F00090E00E94BC0A10920001552009F48ACFA6
:10150000809206015092070183E6B4CE309200012A
:1015100063E085E090E00E94BC0AA0920601109270
:10152000070180E9A7CEBC0180E090E00E94CA0AD2
:10153000A09206011092070180E99CCEEE0FFF1FDA
:101540000590F491E02D0994F999FECF92BD81BDEB
:10155000F89A992780B50895A8E1B0E042E050E0FC
:101560000C94D10ADC01CB0103C02D910E94BD0A6D
:1015700041505040D0F70895262FF999FECF1FBA59
:1015800092BD81BD20BD0FB6F894FA9AF99A0FBEAC
:10159000019608950E94BC0A272F0C94BD0ADC0115
:1015A000CB01FC01F999FECF06C0F2BDE1BDF89A6E
:1015B000319600B40D9241505040B8F70895F89418
:0215C000FFCF5B
:00000001FF
