:100000000C943A000C944C000C944C000C944C0052
:100010000C944C000C944C000C944C000C944C0030
:100020000C944C000C944C000C944C000C944C0020
:100030000C944C000C944C000C944C000C944C0010
:100040000C944C000C944C000C944C000C944C0000
:100050000C944C000C944C000C944C000C944C00F0
:100060000C944C000C944C00312E30306361726F54
:100070007474650011241FBECFEFD8E0DEBFCDBF82
:1000800021E0A0E0B1E001C01D92A730B207E1F786
:100090000E94EF040C943E070C940000CF93DF9372
:1000A0008BE30E948F0388EF0E948F0381E00E9400
:1000B0008F0385E00E948F0385E00E948F0380E01C
:1000C0000E948F0380E00E948F03CCE6D0E0FE0107
:1000D00084910E948F032196F0E0C337DF07B9F7C0
:1000E000DF91CF910895CF9380910401843041F046
:1000F0008CE68093050184E080930601CF910895FA
:10010000809100010E948F0380910401882369F08F
:10011000C0E0EC2FF0E0E859FF4F84910E948F037C
:10012000CF5F80910401C817A0F380E98093050197
:10013000CF9108954F925F926F927F928F929F928C
:10014000AF92BF92CF92DF92EF92FF920F931F93E5
:10015000CF93DF9383E290E00E9403078C31A9F0F4
:1001600060E083E290E0DF91CF911F910F91FF90CB
:10017000EF90DF90CF90BF90AF909F908F907F9047
:100180006F905F904F900C941B0785E290E00E9467
:100190000307482E882321F386E2A82E80E0B82E9C
:1001A00099E2692E90E0792E512CCFE2D0E0C50182
:1001B0000E940307C82EC3010E940B074C01CC20EC
:1001C000D1F0CA94D12C8FEFC81AD80ACC0EDD1EFC
:1001D0007E018FEFE81AF80ACE010E94030784011E
:1001E0000F5F1F4F682FC4010E941B07E7014801E2
:1001F000CE14DF0469F753948FEFA81AB80A82E08F
:10020000680E711C4510D3CFABCF8F929F92BF92D7
:10021000CF92DF92EF92FF920F931F93CF93DF93D2
:10022000CDB7DEB78E01025F1F4FF801E190F1906C
:100230008F0160E083E290E00E941B07E114F1046B
:1002400009F442C03FE2832E30E0932EB12CA70187
:10025000B401F801808191810E9411078E0C9F1CCE
:10026000CB2CD12CF80162817381F3E0CF0ED11C2D
:10027000C601880F991F8D5D9F4F0E9429076E2D23
:10028000C6018D5D9F4F0E941B07B394F801E48067
:10029000F5800A5F1F4FE114F104C9F66B2D85E26A
:1002A00090E00E941B076CE183E290E00E941B0734
:1002B000DF91CF911F910F91FF90EF90DF90CF9042
:1002C000BF909F908F900895B12CE8CF2F923F92CE
:1002D0004F925F926F927F928F929F92AF92BF9256
:1002E000CF92DF92EF92FF920F931F93CF93DF9302
:1002F000CDB7DEB7A0970FB6F894DEBF0FBECDBF67
:10030000809104018132F8F08CE68093050180E24F
:1003100080930601A0960FB6F894DEBF0FBECDBF46
:10032000DF91CF911F910F91FF90EF90DF90CF90D1
:10033000BF90AF909F908F907F906F905F904F9005
:100340003F902F900895809100010E948F0380912B
:100350000401882309F480C09E012F5F3F4F69018B
:10036000790100E010E00E946504F70181937F01AC
:100370000F5F1F4F8091040190E0081719079CF34D
:100380001F921F9222E030E03F932F93DF92CF9293
:100390009F938F9382E290E09F938F9384E091E00C
:1003A0009F938F931F9281E08F930E94050183E2B8
:1003B00090E00E9403070FB6F894DEBF0FBECDBFDA
:1003C0008C3149F060E083E290E00E941B0780E9F5
:1003D000809305019FCF85E290E00E940307282EBD
:1003E000882381F386E2682E80E0782E99E2492EF8
:1003F00090E0592E0FE210E0312CC3010E94030758
:10040000882EC2010E940B077C018820D9F08A94B3
:10041000912CFFEF8F1A9F0A800E911E58012FEF2B
:10042000A21AB20AC8010E94030767013FEFC31A6C
:10043000D30A682FC7010E941B0785017601A81403
:10044000B90461F733948FEF681A780A92E0490E85
:10045000511C2310D2CFB6CF80E090E09E012F5FD9
:100460003F4F69018DCFCF93DF9382E290E00E94EE
:10047000030790910401891741F09CE690930501D0
:1004800080930601DF91CF910895809100010E9431
:100490008F0380910401882381F0C0E0D0E0CE0179
:1004A0008E5F9F4F0E9403070E948F0321968091C9
:1004B000040190E0C817D90794F380E980930501FF
:1004C000DF91CF910895CF9380910401823041F064
:1004D0008CE68093050182E080930601CF91089518
:1004E000809100010E948F0380E090E00E940B0742
:1004F000C82F892F0E948F038C2F0E948F0380E9C1
:1005000080930501CF910895CF93DF9380910401EB
:10051000823049F08CE68093050182E080930601E9
:10052000DF91CF910895809100010E948F030E9476
:100530006504C82FD0E0DC2FCC270E946504C82BAF
:1005400080E090E00E940B07BE01680F791F6817DA
:10055000790730F481E680930501DF91CF9108950A
:1005600080E090E00E94290780E980930501D8CFC0
:100570002F923F924F925F926F927F928F929F92B3
:10058000AF92BF92CF92DF92EF92FF920F931F93A1
:10059000CF93DF9300D0CDB7DEB7109104011230B6
:1005A000D9F08CE68093050182E0809306010F90DC
:1005B0000F90DF91CF911F910F91FF90EF90DF90FF
:1005C000CF90BF90AF909F908F907F906F905F90F3
:1005D0004F903F902F900895809100010E948F03CB
:1005E0000E946504E82EF12CFE2CEE240E94650486
:1005F000E82A80E090E00E940B078E159F0520F40A
:1006000081E680930501D3CF8E199F099A83898350
:100610001F921F9280E090E09F938F93CE010196EE
:100620009F938F931F921F930E94050183E290E096
:100630000E9403070FB6F894DEBF0FBECDBF8C310A
:1006400049F060E083E290E00E941B0780E980931C
:100650000501ADCF85E290E00E940307282E882394
:1006600081F386E2682E80E0782E99E2492E90E0B0
:10067000592E0FE210E0312CC3010E940307882E8F
:10068000C2010E940B077C018820D9F08A94912C2A
:100690003FEF831A930A800E911E58018FEFA81A1C
:1006A000B80AC8010E94030767019FEFC91AD90A57
:1006B000682FC7010E941B0785017601A814B904A1
:1006C00061F733942FEF621A720A32E0430E511C25
:1006D0002310D2CFB6CFCF93DF9300D0CDB7DEB704
:1006E0008A838A8181708295807F898382EB90E002
:1006F000FC0180818E32D0F385E290E02981FC01FB
:10070000208382EB90E0FC01108282EB90E0FC0100
:10071000108200000F900F90DF91CF910895CF933A
:10072000DF9300D000D0CDB7DEB78C838C818B8374
:1007300081EB90E022E0FC01208382EB90E028E254
:10074000FC01208385E290E025E230E0F901208180
:100750002061FC01208384E290E024E230E0F90192
:1007600020812061FC01208380E00E946B031A82BB
:1007700019820DC08C810E946B039A818C8189271C
:100780008A838C8186958C8389818F5F8983898117
:10079000883080F38A810E946B0381E00E946B03A2
:1007A00082EB90E0FC0180818E32D0F384E290E015
:1007B00024E230E0F90120812F7EFC01208385E2D4
:1007C00090E025E230E0F90120812F7EFC012083BA
:1007D00082EB90E0FC0180818D35D0F383E290E0E4
:1007E000FC018081882F90E080719927892B91F4FA
:1007F00083E290E0FC018081882F90E0807199274E
:10080000892BB1F382EB90E026E1FC0120838B8100
:100810008C8398CF81EB90E0FC01108200000F9058
:100820000F900F900F90DF91CF910895CF93DF93AA
:100830001F92CDB7DEB782EB90E0FC0180818E3253
:10084000D0F382EB90E0FC01108282EB90E0FC019F
:10085000108282EB90E0FC0180818C30D0F383E247
:1008600090E0FC0180818071898382EB90E0FC0143
:1008700080818731D0F383E290E0FC018081882F72
:1008800090E080719927982F8981890F898382EB65
:1008900090E0FC0180818232D0F383E290E0FC01A1
:1008A0008081882F90E080719927982F8981890F06
:1008B00089838981882F90E0880F991F880F991F5D
:1008C00080780F90DF91CF910895CF93DF9300D080
:1008D00000D0CDB7DEB781EB90E022E0FC012083B1
:1008E00084E290E024E230E0F90120812F7EFC01D7
:1008F000208385E290E025E230E0F901208120614B
:10090000FC0120831A8283E290E0FC018081882F21
:1009100090E080719927892BB1F783E290E0FC0188
:100920008081882F90E080719927892BB1F782EB25
:1009300090E0FC01108282EB90E0FC0110821B82AF
:10094000198210C00E9416048C838A81982F969574
:100950008C81890F8A839B818C8189278B838981F4
:100960008F5F89838981883068F30E941604982FED
:100970008B8189278B8382EB90E0FC0180818D3510
:10098000D0F38B818823C9F085E290E025E230E046
:10099000F90120812F7EFC01208384E290E024E293
:1009A00030E0F90120812061FC01208382EB90E09E
:1009B000FC018081823AD0F393CF82EB90E0FC017E
:1009C00080818B38D0F381EB90E0FC0110828A812A
:1009D0000F900F900F900F90DF91CF910895CF93CC
:1009E000DF93CDB7DEB7A2970FB6F894DEBF0FBE88
:1009F000CDBF80E880BF87E8809364008FEF85B922
:100A000084B988B987B91AB88BB980E68093B600E3
:100A10000E944E000E949A00109206016CE6362E4B
:100A20007EE6272E15C080910001823009F482C035
:100A3000833009F465C0813009F43FC02DE620936E
:100A400005018DE60E948F03809106010E948F03AD
:100A50000E946504809302010E9465048093000156
:100A60000E946504809303010E9465048093010144
:100A70000E946504182F8093040110920601809152
:100A80000201813831F0823871F2209205018EE640
:100A9000D9CF80910001813049F1F0F08230B9F472
:100AA00082E290E00E940307181709F4ADC030926B
:100AB0000501809306018CE6C5CF123009F4D2C03F
:100AC0003092050182E0809306018CE6BBCF4DE6B3
:100AD000409305018DE6B6CF143009F4AEC03092D4
:100AE000050124E0209306018CE6ACCF113208F416
:100AF0003FC03092050140E2409306018CE6A2CF50
:100B00001230F1F683E00E948F030E94650490E0AA
:100B1000F82EEE240E946504E82A80E090E00E940E
:100B20000B078E159F0508F0FDC0F1E6F093050157
:100B300081E688CF123021F682E00E948F030E9466
:100B40006504082F10E0102F00270E946504082B71
:100B500080E090E00E940B07B801680F791F6817CA
:100B6000790708F0D6C091E69093050181E66ACF37
:100B700081E00E948F0380910401882309F440C121
:100B80008E010F5F1F4FE12CF12C0E946504F801CC
:100B900081938F01FFEFEF1AFF0A8091040190E02B
:100BA000E816F90694F31F921F9222E030E03F937B
:100BB0002F93E1E0F0E0EC0FFD1FFF93EF939F9385
:100BC0008F9322E230E03F932F9384E091E09F9354
:100BD0008F931F9281E08F930E94050183E290E042
:100BE0000E9403070FB6F894DEBF0FBECDBF8C3155
:100BF00009F44AC060E083E290E00E941B0730E9FC
:100C00003093050180E91ECF82E00E948F0380911E
:100C100004018823A1F300E010E0C8018E5F9F4F1C
:100C20000E9403070E948F030F5F1F4F80910401F2
:100C300090E0081719078CF3E2CF80E00E948F0341
:100C4000809104018823D9F210E0E12FF0E0E85907
:100C5000FF4F84910E948F031F5F8091040118173A
:100C6000A0F3CDCF81E00E948F0380E090E00E944E
:100C70000B07182F892F0E948F03812F0E948F034B
:100C800080E980930501DECE85E290E00E940307B3
:100C90008AA3882309F4AECF46E2642E40E0742E86
:100CA00059E2452E50E0552E0FE210E019A2C30183
:100CB0000E940307882EC2010E940B077C01882036
:100CC000D9F08A94912C4FEF841A940A800E911EC9
:100CD00058018FEFA81AB80AC8010E9403076701DC
:100CE0009FEFC91AD90A682FC7010E941B07850107
:100CF0007601A814B90461F7E9A1EF5FE9A3FFEF5A
:100D00006F1A7F0A22E0420E511C3AA13E13CFCF48
:100D100071CF80E090E00E942907E0E9E0930501AF
:100D200080E990CE8E199F099A8389831F921F9222
:100D300080E090E09F938F9321E030E02C0F3D1FE7
:100D40003F932F931F921F930E94050183E290E02F
:100D50000E9403070FB6F894DEBF0FBECDBF8C31E3
:100D600051F060E083E290E00E941B07F0E9F0930D
:100D7000050180E967CE85E290E00E9403078AA31F
:100D8000882379F386E2682E80E0782E99E2492E56
:100D900090E0592E0FE210E019A2C3010E94030750
:100DA000D82EC2010E940B077C01DD20E1F0DA940D
:100DB0008D2C912C2FEF821A920A800E911E5801D1
:100DC0003FEFA31AB30AC8010E94030767014FEF60
:100DD000C41AD40A682FC7010E941B078501760137
:100DE0008A149B0461F789A18F5F89A39FEF691A19
:100DF000790AE2E04E0E511CFAA1F813CECFB1CF22
:100E000080E090E0D0CEF999FECF92BD81BDF89AF6
:100E1000992780B50895A8E1B0E042E050E00C9435
:100E20003007DC01CB0103C02D910E941C0741500B
:100E30005040D0F70895262FF999FECF1FBA92BDE2
:100E400081BD20BD0FB6F894FA9AF99A0FBE0196AB
:100E500008950E941B07272F0C941C07DC01CB016F
:100E6000FC01F999FECF06C0F2BDE1BDF89A3196BA
:100E700000B40D9241505040B8F70895F894FFCF58
:00000001FF
